{
  "contractName": "Lottery",
  "abi": [
    {
      "inputs": [],
      "stateMutability": "nonpayable",
      "type": "constructor"
    },
    {
      "inputs": [],
      "name": "manager",
      "outputs": [
        {
          "internalType": "address",
          "name": "",
          "type": "address"
        }
      ],
      "stateMutability": "view",
      "type": "function",
      "constant": true
    },
    {
      "inputs": [
        {
          "internalType": "uint256",
          "name": "",
          "type": "uint256"
        }
      ],
      "name": "players",
      "outputs": [
        {
          "internalType": "address payable",
          "name": "",
          "type": "address"
        }
      ],
      "stateMutability": "view",
      "type": "function",
      "constant": true
    },
    {
      "inputs": [],
      "name": "winner",
      "outputs": [
        {
          "internalType": "address payable",
          "name": "",
          "type": "address"
        }
      ],
      "stateMutability": "view",
      "type": "function",
      "constant": true
    },
    {
      "stateMutability": "payable",
      "type": "receive",
      "payable": true
    },
    {
      "inputs": [],
      "name": "getBalance",
      "outputs": [
        {
          "internalType": "uint256",
          "name": "",
          "type": "uint256"
        }
      ],
      "stateMutability": "view",
      "type": "function",
      "constant": true
    },
    {
      "inputs": [],
      "name": "pickWinner",
      "outputs": [],
      "stateMutability": "nonpayable",
      "type": "function"
    },
    {
      "inputs": [],
      "name": "allPlayers",
      "outputs": [
        {
          "internalType": "address payable[]",
          "name": "",
          "type": "address[]"
        }
      ],
      "stateMutability": "view",
      "type": "function",
      "constant": true
    }
  ],
  "bytecode": "0x608060405234801561001057600080fd5b50336000806101000a81548173ffffffffffffffffffffffffffffffffffffffff021916908373ffffffffffffffffffffffffffffffffffffffff160217905550610b9d806100606000396000f3fe6080604052600436106100595760003560e01c806312065fe014610112578063481c6a751461013d5780635d495aea14610168578063b0ec80941461017f578063dfbf53ae146101aa578063f71d96cb146101d55761010d565b3661010d57670de0b6b3a764000034146100a8576040517f08c379a000000000000000000000000000000000000000000000000000000000815260040161009f90610749565b60405180910390fd5b6001339080600181540180825580915050600190039060005260206000200160009091909190916101000a81548173ffffffffffffffffffffffffffffffffffffffff021916908373ffffffffffffffffffffffffffffffffffffffff160217905550005b600080fd5b34801561011e57600080fd5b50610127610212565b6040516101349190610782565b60405180910390f35b34801561014957600080fd5b506101526102a9565b60405161015f91906107de565b60405180910390f35b34801561017457600080fd5b5061017d6102cd565b005b34801561018b57600080fd5b50610194610518565b6040516101a191906108c9565b60405180910390f35b3480156101b657600080fd5b506101bf6105a6565b6040516101cc91906108fa565b60405180910390f35b3480156101e157600080fd5b506101fc60048036038101906101f79190610946565b6105cc565b60405161020991906108fa565b60405180910390f35b60008060009054906101000a900473ffffffffffffffffffffffffffffffffffffffff1673ffffffffffffffffffffffffffffffffffffffff163373ffffffffffffffffffffffffffffffffffffffff16146102a3576040517f08c379a000000000000000000000000000000000000000000000000000000000815260040161029a906109bf565b60405180910390fd5b47905090565b60008054906101000a900473ffffffffffffffffffffffffffffffffffffffff1681565b60008054906101000a900473ffffffffffffffffffffffffffffffffffffffff1673ffffffffffffffffffffffffffffffffffffffff163373ffffffffffffffffffffffffffffffffffffffff161461035b576040517f08c379a0000000000000000000000000000000000000000000000000000000008152600401610352906109bf565b60405180910390fd5b600360018054905010156103a4576040517f08c379a000000000000000000000000000000000000000000000000000000000815260040161039b90610a2b565b60405180910390fd5b60006103ae61060b565b90506000600180549050826103c39190610a7a565b9050600181815481106103d9576103d8610aab565b5b9060005260206000200160009054906101000a900473ffffffffffffffffffffffffffffffffffffffff16600260006101000a81548173ffffffffffffffffffffffffffffffffffffffff021916908373ffffffffffffffffffffffffffffffffffffffff160217905550600260009054906101000a900473ffffffffffffffffffffffffffffffffffffffff1673ffffffffffffffffffffffffffffffffffffffff166108fc610488610212565b9081150290604051600060405180830381858888f193505050501580156104b3573d6000803e3d6000fd5b50600067ffffffffffffffff8111156104cf576104ce610ada565b5b6040519080825280602002602001820160405280156104fd5781602001602082028036833780820191505090505b5060019080519060200190610513929190610645565b505050565b6060600180548060200260200160405190810160405280929190818152602001828054801561059c57602002820191906000526020600020905b8160009054906101000a900473ffffffffffffffffffffffffffffffffffffffff1673ffffffffffffffffffffffffffffffffffffffff1681526020019060010190808311610552575b5050505050905090565b600260009054906101000a900473ffffffffffffffffffffffffffffffffffffffff1681565b600181815481106105dc57600080fd5b906000526020600020016000915054906101000a900473ffffffffffffffffffffffffffffffffffffffff1681565b6000444260018054905060405160200161062793929190610b2a565b6040516020818303038152906040528051906020012060001c905090565b8280548282559060005260206000209081019282156106be579160200282015b828111156106bd5782518260006101000a81548173ffffffffffffffffffffffffffffffffffffffff021916908373ffffffffffffffffffffffffffffffffffffffff16021790555091602001919060010190610665565b5b5090506106cb91906106cf565b5090565b5b808211156106e85760008160009055506001016106d0565b5090565b600082825260208201905092915050565b7f506c656173652070617920312065746865720000000000000000000000000000600082015250565b60006107336012836106ec565b915061073e826106fd565b602082019050919050565b6000602082019050818103600083015261076281610726565b9050919050565b6000819050919050565b61077c81610769565b82525050565b60006020820190506107976000830184610773565b92915050565b600073ffffffffffffffffffffffffffffffffffffffff82169050919050565b60006107c88261079d565b9050919050565b6107d8816107bd565b82525050565b60006020820190506107f360008301846107cf565b92915050565b600081519050919050565b600082825260208201905092915050565b6000819050602082019050919050565b60006108308261079d565b9050919050565b61084081610825565b82525050565b60006108528383610837565b60208301905092915050565b6000602082019050919050565b6000610876826107f9565b6108808185610804565b935061088b83610815565b8060005b838110156108bc5781516108a38882610846565b97506108ae8361085e565b92505060018101905061088f565b5085935050505092915050565b600060208201905081810360008301526108e3818461086b565b905092915050565b6108f481610825565b82525050565b600060208201905061090f60008301846108eb565b92915050565b600080fd5b61092381610769565b811461092e57600080fd5b50565b6000813590506109408161091a565b92915050565b60006020828403121561095c5761095b610915565b5b600061096a84828501610931565b91505092915050565b7f596f7520617265206e6f7420746865206d616e61676572000000000000000000600082015250565b60006109a96017836106ec565b91506109b482610973565b602082019050919050565b600060208201905081810360008301526109d88161099c565b9050919050565b7f506c617965727320617265206c657373207468616e2033000000000000000000600082015250565b6000610a156017836106ec565b9150610a20826109df565b602082019050919050565b60006020820190508181036000830152610a4481610a08565b9050919050565b7f4e487b7100000000000000000000000000000000000000000000000000000000600052601260045260246000fd5b6000610a8582610769565b9150610a9083610769565b925082610aa057610a9f610a4b565b5b828206905092915050565b7f4e487b7100000000000000000000000000000000000000000000000000000000600052603260045260246000fd5b7f4e487b7100000000000000000000000000000000000000000000000000000000600052604160045260246000fd5b6000819050919050565b610b24610b1f82610769565b610b09565b82525050565b6000610b368286610b13565b602082019150610b468285610b13565b602082019150610b568284610b13565b60208201915081905094935050505056fea26469706673582212207ed604a0f454f68ffec32e74f5159aab2d14e051c530413ea2f047d890f72e2c64736f6c634300080b0033",
  "immutableReferences": {},
  "source": "// SPDX-License-Identifier: GPL-3.0\n\npragma solidity >=0.5.0 <0.9.0;\n\n\ncontract Lottery {\n    address public manager; /* address datatype is used, because we are sending ether and receiving ehter.. simply\n                                dealing with address */\n    address payable[] public players; /* \"payable\" was used because once we find the winner, we need to \n    transfer ether to that address, simple \"he needs to be payable\"... otherwise how can we send him...*/\n    /* we used array \"[]\" because there can be multiple number of participants... above in manager we didn't use\n    any array, because he is just a single person */\n\n    address payable public winner;\n\n    /* now we have to find who is going to deploy this contract... here manager will be deploying contract\n    so at the start (using constructor, we will inform/say that authorizty to deploy/controller \n    of this contract will be on \"Manager only */\n    constructor()// this function will be used for only one time\n    {\n        manager=msg.sender;\n        /* here \"msg.sender\" is a global variable... the account address \"0x583..\" of this remix ID will be given\n        to manager... we are just making him controller of this lottery ---> to make him controller, \n        we will use \"require statement) */\n        /* require statment is simply like \"if-else statement\"... easy way to write if-else */\n    }\n    /* now we will be receiving ether from participant, so we want to make is as \"payable\"...also we will be\n    receiving ether from \"external\" participants.. so we use \"external\" keyword... here \"receive()\" will run \n    for only one time */\n    receive() external payable /* when participant sends ether --> [[how much of ether (i.e, 2 ether) can be set using\n    require statement)]]... this function will run */\n    {\n        require(msg.value==1 ether,\"Please pay 1 ether\"); /* if this condition is satisfied, the below line will be executed else not..\n        meaning: if the user is not paying 1 ether, participant's address will not be sent to array of participants  */\n        players.push(payable(msg.sender)); /* this line will push the address of sender(participant) into array\n        of participants... \"participants\" above is dynamic array,,, so we can insert the address/value into it...\n        */\n    }\n\n    function getBalance() public view returns(uint)\n    {\n        require(msg.sender==manager,\"You are not the manager\"); /* if the sender address(current user's address.. when we choose from the list of account) \n        matches that address of manager, he will be able to see the contract balance */\n        return address(this).balance; // will give the balance of specific/this \"contract\"\n    }\n\n    /* now we are going to select randomly the participant... for that we are going to create function...inside that\n    we are going to use \"keccak256\" algorithm...\n    */\n    function random() internal view returns(uint) // this function will give random value\n    {\n        return uint(keccak256(abi.encodePacked(block.difficulty,block.timestamp,players.length))); \n        /* this line is just for example... solidity is deterministic... hacker can predict what the random number will be\n        if he finds timestamp function or how it works */\n    }\n    /* now we are going to select the player randomly... if we use % and then anyvalue.... output < that value..eg: % 10...\n    output will always be less than 10 i.e 0-9...*/\n    function pickWinner() public \n    {\n        require(msg.sender==manager,\"You are not the manager\"); // manager is doing this things\n        require(players.length >= 3,\"Players are less than 3\");\n        uint r=random();\n       \n        uint index = r % players.length; // index value will always be less than players.length..\n        winner = players[index];\n        winner.transfer(getBalance()); // transfer all the balance to the winner\n        /* once the balance has been transfered, we have to reset the participants dynamic array to zero */\n        players = new address payable[](0);\n    }\n\n    function allPlayers() public view returns(address payable[] memory){\n        return players;\n    }\n}\n\n/* 0x50F9802ce7CF23236ef75f61eea7CB20214204a0 */\n\n\n/* ganache contract address      0xb774BfaA8895B824eF655f1ccbbF4BAc0BbC53a1 */\n\n/* after this we have to deploy this code to test network.. we are going to test in the Rinkeby Test network .. in the deploy and run\ntransaction section, from the environment we will be choosing \"Injected Web3\"...this will automatcally open \"Metamask Wallet\"...in \nnetwork section of metamask wallet, please select \"Rinkeby Test Network\" only, don't select main network....what happens\nhere is in the Account section in deployment, there will be address of the user of metamask wallet...*/\n\n/* Note: participants will be sending ether to \"contract address\"... not to manager account... what manager can do is: once all the \nether is transferred to \"contract addres\", he will be able to see the balance or run \"getBalance function\"...once it is confirmed that balance \nis obtained or that's it.,, he will run \"selectWinner function\" */\n",
  "sourcePath": "/Users/sagunpanthi/Documents/blockchain-projects/dapp-lottery/web3lab/contracts/Lottery.sol",
  "compiler": {
    "name": "solc",
    "version": "0.8.11+commit.d7f03943.Emscripten.clang"
  },
  "schemaVersion": "3.4.11",
  "updatedAt": "2022-12-22T05:20:52.422Z",
  "networkType": "ethereum",
  "devdoc": {
    "kind": "dev",
    "methods": {},
    "version": 1
  },
  "userdoc": {
    "kind": "user",
    "methods": {},
    "version": 1
  }
}